{
  "_format": "hh-sol-artifact-1",
  "contractName": "AnonAadhaarVote",
  "sourceName": "src/example/AnonAadhaarVote.sol",
  "abi": [
    {
      "inputs": [
        {
          "internalType": "string",
          "name": "_votingQuestion",
          "type": "string"
        },
        {
          "internalType": "string[]",
          "name": "proposalDescriptions",
          "type": "string[]"
        },
        {
          "internalType": "address",
          "name": "_verifierAddr",
          "type": "address"
        }
      ],
      "stateMutability": "nonpayable",
      "type": "constructor"
    },
    {
      "anonymous": false,
      "inputs": [
        {
          "indexed": true,
          "internalType": "address",
          "name": "_from",
          "type": "address"
        },
        {
          "indexed": true,
          "internalType": "uint256",
          "name": "_propositionIndex",
          "type": "uint256"
        }
      ],
      "name": "Voted",
      "type": "event"
    },
    {
      "inputs": [],
      "name": "anonAadhaarVerifierAddr",
      "outputs": [
        {
          "internalType": "address",
          "name": "",
          "type": "address"
        }
      ],
      "stateMutability": "view",
      "type": "function"
    },
    {
      "inputs": [
        {
          "internalType": "uint256",
          "name": "_nullifier",
          "type": "uint256"
        }
      ],
      "name": "checkVoted",
      "outputs": [
        {
          "internalType": "bool",
          "name": "",
          "type": "bool"
        }
      ],
      "stateMutability": "view",
      "type": "function"
    },
    {
      "inputs": [
        {
          "internalType": "uint256",
          "name": "proposalIndex",
          "type": "uint256"
        }
      ],
      "name": "getProposal",
      "outputs": [
        {
          "internalType": "string",
          "name": "",
          "type": "string"
        },
        {
          "internalType": "uint256",
          "name": "",
          "type": "uint256"
        }
      ],
      "stateMutability": "view",
      "type": "function"
    },
    {
      "inputs": [],
      "name": "getProposalCount",
      "outputs": [
        {
          "internalType": "uint256",
          "name": "",
          "type": "uint256"
        }
      ],
      "stateMutability": "view",
      "type": "function"
    },
    {
      "inputs": [],
      "name": "getTotalVotes",
      "outputs": [
        {
          "internalType": "uint256",
          "name": "",
          "type": "uint256"
        }
      ],
      "stateMutability": "view",
      "type": "function"
    },
    {
      "inputs": [
        {
          "internalType": "uint256",
          "name": "",
          "type": "uint256"
        }
      ],
      "name": "hasVoted",
      "outputs": [
        {
          "internalType": "bool",
          "name": "",
          "type": "bool"
        }
      ],
      "stateMutability": "view",
      "type": "function"
    },
    {
      "inputs": [
        {
          "internalType": "uint256",
          "name": "timestamp",
          "type": "uint256"
        }
      ],
      "name": "isLessThan3HoursAgo",
      "outputs": [
        {
          "internalType": "bool",
          "name": "",
          "type": "bool"
        }
      ],
      "stateMutability": "view",
      "type": "function"
    },
    {
      "inputs": [
        {
          "internalType": "uint256",
          "name": "",
          "type": "uint256"
        }
      ],
      "name": "proposals",
      "outputs": [
        {
          "internalType": "string",
          "name": "description",
          "type": "string"
        },
        {
          "internalType": "uint256",
          "name": "voteCount",
          "type": "uint256"
        }
      ],
      "stateMutability": "view",
      "type": "function"
    },
    {
      "inputs": [
        {
          "internalType": "uint256",
          "name": "proposalIndex",
          "type": "uint256"
        },
        {
          "internalType": "uint256",
          "name": "nullifierSeed",
          "type": "uint256"
        },
        {
          "internalType": "uint256",
          "name": "nullifier",
          "type": "uint256"
        },
        {
          "internalType": "uint256",
          "name": "timestamp",
          "type": "uint256"
        },
        {
          "internalType": "uint256",
          "name": "signal",
          "type": "uint256"
        },
        {
          "internalType": "uint256[4]",
          "name": "revealArray",
          "type": "uint256[4]"
        },
        {
          "internalType": "uint256[8]",
          "name": "groth16Proof",
          "type": "uint256[8]"
        }
      ],
      "name": "voteForProposal",
      "outputs": [],
      "stateMutability": "nonpayable",
      "type": "function"
    },
    {
      "inputs": [],
      "name": "votingQuestion",
      "outputs": [
        {
          "internalType": "string",
          "name": "",
          "type": "string"
        }
      ],
      "stateMutability": "view",
      "type": "function"
    }
  ],
  "bytecode": "0x60806040523480156200001157600080fd5b5060405162001c7938038062001c7983398181016040528101906200003791906200042d565b80600160006101000a81548173ffffffffffffffffffffffffffffffffffffffff021916908373ffffffffffffffffffffffffffffffffffffffff160217905550826000908162000089919062000712565b5060005b82518110156200012f5760026040518060400160405280858481518110620000ba57620000b9620007f9565b5b602002602001015181526020016000815250908060018154018082558091505060019003906000526020600020906002020160009091909190915060008201518160000190816200010c919062000712565b506020820151816001015550508080620001269062000857565b9150506200008d565b50505050620008a4565b6000604051905090565b600080fd5b600080fd5b600080fd5b600080fd5b6000601f19601f8301169050919050565b7f4e487b7100000000000000000000000000000000000000000000000000000000600052604160045260246000fd5b620001a28262000157565b810181811067ffffffffffffffff82111715620001c457620001c362000168565b5b80604052505050565b6000620001d962000139565b9050620001e7828262000197565b919050565b600067ffffffffffffffff8211156200020a576200020962000168565b5b620002158262000157565b9050602081019050919050565b60005b838110156200024257808201518184015260208101905062000225565b60008484015250505050565b6000620002656200025f84620001ec565b620001cd565b90508281526020810184848401111562000284576200028362000152565b5b6200029184828562000222565b509392505050565b600082601f830112620002b157620002b06200014d565b5b8151620002c38482602086016200024e565b91505092915050565b600067ffffffffffffffff821115620002ea57620002e962000168565b5b602082029050602081019050919050565b600080fd5b6000620003176200031184620002cc565b620001cd565b905080838252602082019050602084028301858111156200033d576200033c620002fb565b5b835b818110156200038b57805167ffffffffffffffff8111156200036657620003656200014d565b5b80860162000375898262000299565b855260208501945050506020810190506200033f565b5050509392505050565b600082601f830112620003ad57620003ac6200014d565b5b8151620003bf84826020860162000300565b91505092915050565b600073ffffffffffffffffffffffffffffffffffffffff82169050919050565b6000620003f582620003c8565b9050919050565b6200040781620003e8565b81146200041357600080fd5b50565b6000815190506200042781620003fc565b92915050565b60008060006060848603121562000449576200044862000143565b5b600084015167ffffffffffffffff8111156200046a576200046962000148565b5b620004788682870162000299565b935050602084015167ffffffffffffffff8111156200049c576200049b62000148565b5b620004aa8682870162000395565b9250506040620004bd8682870162000416565b9150509250925092565b600081519050919050565b7f4e487b7100000000000000000000000000000000000000000000000000000000600052602260045260246000fd5b600060028204905060018216806200051a57607f821691505b60208210810362000530576200052f620004d2565b5b50919050565b60008190508160005260206000209050919050565b60006020601f8301049050919050565b600082821b905092915050565b6000600883026200059a7fffffffffffffffffffffffffffffffffffffffffffffffffffffffffffffffff826200055b565b620005a686836200055b565b95508019841693508086168417925050509392505050565b6000819050919050565b6000819050919050565b6000620005f3620005ed620005e784620005be565b620005c8565b620005be565b9050919050565b6000819050919050565b6200060f83620005d2565b620006276200061e82620005fa565b84845462000568565b825550505050565b600090565b6200063e6200062f565b6200064b81848462000604565b505050565b5b8181101562000673576200066760008262000634565b60018101905062000651565b5050565b601f821115620006c2576200068c8162000536565b62000697846200054b565b81016020851015620006a7578190505b620006bf620006b6856200054b565b83018262000650565b50505b505050565b600082821c905092915050565b6000620006e760001984600802620006c7565b1980831691505092915050565b6000620007028383620006d4565b9150826002028217905092915050565b6200071d82620004c7565b67ffffffffffffffff81111562000739576200073862000168565b5b62000745825462000501565b6200075282828562000677565b600060209050601f8311600181146200078a576000841562000775578287015190505b620007818582620006f4565b865550620007f1565b601f1984166200079a8662000536565b60005b82811015620007c4578489015182556001820191506020850194506020810190506200079d565b86831015620007e45784890151620007e0601f891682620006d4565b8355505b6001600288020188555050505b505050505050565b7f4e487b7100000000000000000000000000000000000000000000000000000000600052603260045260246000fd5b7f4e487b7100000000000000000000000000000000000000000000000000000000600052601160045260246000fd5b60006200086482620005be565b91507fffffffffffffffffffffffffffffffffffffffffffffffffffffffffffffffff820362000899576200089862000828565b5b600182019050919050565b6113c580620008b46000396000f3fe608060405234801561001057600080fd5b506004361061009e5760003560e01c80637f7658ff116100665780637f7658ff1461016e5780639a0e7d661461018c578063c08cc02d146101aa578063c7f758a8146101c8578063ecca031f146101f95761009e565b8063013cf08b146100a35780630dbffbcd146100d45780631ec7ea8f146100f2578063470d8c2c1461012257806362756a0114610152575b600080fd5b6100bd60048036038101906100b891906108e0565b610229565b6040516100cb9291906109ac565b60405180910390f35b6100dc6102e5565b6040516100e99190610a1d565b60405180910390f35b61010c600480360381019061010791906108e0565b61030b565b6040516101199190610a53565b60405180910390f35b61013c600480360381019061013791906108e0565b610324565b6040516101499190610a53565b60405180910390f35b61016c60048036038101906101679190610c55565b61034e565b005b61017661062f565b6040516101839190610cf9565b60405180910390f35b6101946106bd565b6040516101a19190610d1b565b60405180910390f35b6101b2610722565b6040516101bf9190610d1b565b60405180910390f35b6101e260048036038101906101dd91906108e0565b61072f565b6040516101f09291906109ac565b60405180910390f35b610213600480360381019061020e91906108e0565b61085b565b6040516102209190610a53565b60405180910390f35b6002818154811061023957600080fd5b906000526020600020906002020160009150905080600001805461025c90610d65565b80601f016020809104026020016040519081016040528092919081815260200182805461028890610d65565b80156102d55780601f106102aa576101008083540402835291602001916102d5565b820191906000526020600020905b8154815290600101906020018083116102b857829003601f168201915b5050505050908060010154905082565b600160009054906101000a900473ffffffffffffffffffffffffffffffffffffffff1681565b6000612a304261031b9190610dc5565b82119050919050565b60006003600083815260200190815260200160002060009054906101000a900460ff169050919050565b6002805490508710610395576040517f08c379a000000000000000000000000000000000000000000000000000000000815260040161038c90610e6b565b60405180910390fd5b8261039f3361087b565b146103df576040517f08c379a00000000000000000000000000000000000000000000000000000000081526004016103d690610efd565b60405180910390fd5b600115156103ec8561030b565b15151461042e576040517f08c379a000000000000000000000000000000000000000000000000000000000815260040161042590610fb5565b60405180910390fd5b60011515600160009054906101000a900473ffffffffffffffffffffffffffffffffffffffff1673ffffffffffffffffffffffffffffffffffffffff166350de0e578888888888886040518763ffffffff1660e01b815260040161049796959493929190611104565b602060405180830381865afa1580156104b4573d6000803e3d6000fd5b505050506040513d601f19601f820116820180604052508101906104d89190611193565b15151461051a576040517f08c379a000000000000000000000000000000000000000000000000000000000815260040161051190611232565b60405180910390fd5b6003600086815260200190815260200160002060009054906101000a900460ff161561057b576040517f08c379a0000000000000000000000000000000000000000000000000000000008152600401610572906112c4565b60405180910390fd5b6002878154811061058f5761058e6112e4565b5b906000526020600020906002020160010160008154809291906105b190611313565b919050555060016003600087815260200190815260200160002060006101000a81548160ff021916908315150217905550863373ffffffffffffffffffffffffffffffffffffffff167f4d99b957a2bc29a30ebd96a7be8e68fe50a3c701db28a91436490b7d53870ca460405160405180910390a350505050505050565b6000805461063c90610d65565b80601f016020809104026020016040519081016040528092919081815260200182805461066890610d65565b80156106b55780601f1061068a576101008083540402835291602001916106b5565b820191906000526020600020905b81548152906001019060200180831161069857829003601f168201915b505050505081565b6000806000905060005b60028054905081101561071a57600281815481106106e8576106e76112e4565b5b90600052602060002090600202016001015482610705919061135b565b9150808061071290611313565b9150506106c7565b508091505090565b6000600280549050905090565b60606000600280549050831061077a576040517f08c379a000000000000000000000000000000000000000000000000000000000815260040161077190610e6b565b60405180910390fd5b6000600284815481106107905761078f6112e4565b5b90600052602060002090600202016040518060400160405290816000820180546107b990610d65565b80601f01602080910402602001604051908101604052809291908181526020018280546107e590610d65565b80156108325780601f1061080757610100808354040283529160200191610832565b820191906000526020600020905b81548152906001019060200180831161081557829003601f168201915b505050505081526020016001820154815250509050806000015181602001519250925050915091565b60036020528060005260406000206000915054906101000a900460ff1681565b60008173ffffffffffffffffffffffffffffffffffffffff169050919050565b6000604051905090565b600080fd5b6000819050919050565b6108bd816108aa565b81146108c857600080fd5b50565b6000813590506108da816108b4565b92915050565b6000602082840312156108f6576108f56108a5565b5b6000610904848285016108cb565b91505092915050565b600081519050919050565b600082825260208201905092915050565b60005b8381101561094757808201518184015260208101905061092c565b60008484015250505050565b6000601f19601f8301169050919050565b600061096f8261090d565b6109798185610918565b9350610989818560208601610929565b61099281610953565b840191505092915050565b6109a6816108aa565b82525050565b600060408201905081810360008301526109c68185610964565b90506109d5602083018461099d565b9392505050565b600073ffffffffffffffffffffffffffffffffffffffff82169050919050565b6000610a07826109dc565b9050919050565b610a17816109fc565b82525050565b6000602082019050610a326000830184610a0e565b92915050565b60008115159050919050565b610a4d81610a38565b82525050565b6000602082019050610a686000830184610a44565b92915050565b600080fd5b7f4e487b7100000000000000000000000000000000000000000000000000000000600052604160045260246000fd5b610aab82610953565b810181811067ffffffffffffffff82111715610aca57610ac9610a73565b5b80604052505050565b6000610add61089b565b9050610ae98282610aa2565b919050565b600067ffffffffffffffff821115610b0957610b08610a73565b5b602082029050919050565b600080fd5b6000610b2c610b2784610aee565b610ad3565b90508060208402830185811115610b4657610b45610b14565b5b835b81811015610b6f5780610b5b88826108cb565b845260208401935050602081019050610b48565b5050509392505050565b600082601f830112610b8e57610b8d610a6e565b5b6004610b9b848285610b19565b91505092915050565b600067ffffffffffffffff821115610bbf57610bbe610a73565b5b602082029050919050565b6000610bdd610bd884610ba4565b610ad3565b90508060208402830185811115610bf757610bf6610b14565b5b835b81811015610c205780610c0c88826108cb565b845260208401935050602081019050610bf9565b5050509392505050565b600082601f830112610c3f57610c3e610a6e565b5b6008610c4c848285610bca565b91505092915050565b6000806000806000806000610220888a031215610c7557610c746108a5565b5b6000610c838a828b016108cb565b9750506020610c948a828b016108cb565b9650506040610ca58a828b016108cb565b9550506060610cb68a828b016108cb565b9450506080610cc78a828b016108cb565b93505060a0610cd88a828b01610b79565b925050610120610cea8a828b01610c2a565b91505092959891949750929550565b60006020820190508181036000830152610d138184610964565b905092915050565b6000602082019050610d30600083018461099d565b92915050565b7f4e487b7100000000000000000000000000000000000000000000000000000000600052602260045260246000fd5b60006002820490506001821680610d7d57607f821691505b602082108103610d9057610d8f610d36565b5b50919050565b7f4e487b7100000000000000000000000000000000000000000000000000000000600052601160045260246000fd5b6000610dd0826108aa565b9150610ddb836108aa565b9250828203905081811115610df357610df2610d96565b5b92915050565b7f5b416e6f6e41616468616172566f74655d3a20496e76616c69642070726f706f60008201527f73616c20696e6465780000000000000000000000000000000000000000000000602082015250565b6000610e55602983610918565b9150610e6082610df9565b604082019050919050565b60006020820190508181036000830152610e8481610e48565b9050919050565b7f5b416e6f6e41616468616172566f74655d3a2077726f6e67207573657220736960008201527f676e616c2073656e742e00000000000000000000000000000000000000000000602082015250565b6000610ee7602a83610918565b9150610ef282610e8b565b604082019050919050565b60006020820190508181036000830152610f1681610eda565b9050919050565b7f5b416e6f6e41616468616172566f74655d3a2050726f6f66206d75737420626560008201527f2067656e6572617465642077697468204161646861617220646174612067656e60208201527f657261746564206c657373207468616e203320686f7572732061676f2e000000604082015250565b6000610f9f605d83610918565b9150610faa82610f1d565b606082019050919050565b60006020820190508181036000830152610fce81610f92565b9050919050565b600060049050919050565b600081905092915050565b6000819050919050565b610ffe816108aa565b82525050565b60006110108383610ff5565b60208301905092915050565b6000602082019050919050565b61103281610fd5565b61103c8184610fe0565b925061104782610feb565b8060005b8381101561107857815161105f8782611004565b965061106a8361101c565b92505060018101905061104b565b505050505050565b600060089050919050565b600081905092915050565b6000819050919050565b6000602082019050919050565b6110b681611080565b6110c0818461108b565b92506110cb82611096565b8060005b838110156110fc5781516110e38782611004565b96506110ee836110a0565b9250506001810190506110cf565b505050505050565b60006102008201905061111a600083018961099d565b611127602083018861099d565b611134604083018761099d565b611141606083018661099d565b61114e6080830185611029565b61115c6101008301846110ad565b979650505050505050565b61117081610a38565b811461117b57600080fd5b50565b60008151905061118d81611167565b92915050565b6000602082840312156111a9576111a86108a5565b5b60006111b78482850161117e565b91505092915050565b7f5b416e6f6e41616468616172566f74655d3a2070726f6f662073656e7420697360008201527f206e6f742076616c69642e000000000000000000000000000000000000000000602082015250565b600061121c602b83610918565b9150611227826111c0565b604082019050919050565b6000602082019050818103600083015261124b8161120f565b9050919050565b7f5b416e6f6e41616468616172566f74655d3a20557365722068617320616c726560008201527f61647920766f7465640000000000000000000000000000000000000000000000602082015250565b60006112ae602983610918565b91506112b982611252565b604082019050919050565b600060208201905081810360008301526112dd816112a1565b9050919050565b7f4e487b7100000000000000000000000000000000000000000000000000000000600052603260045260246000fd5b600061131e826108aa565b91507fffffffffffffffffffffffffffffffffffffffffffffffffffffffffffffffff82036113505761134f610d96565b5b600182019050919050565b6000611366826108aa565b9150611371836108aa565b925082820190508082111561138957611388610d96565b5b9291505056fea2646970667358221220f213ed54fee392eb49a100478240c79db71dfa1a32f41c3ad7d10219de1b24da64736f6c63430008130033",
  "linkReferences": {},
  "deployedLinkReferences": {}
}