{
  "_format": "hh-sol-artifact-1",
  "contractName": "AnonAadhaarVote",
  "sourceName": "contracts/AnonAadhaarVote.sol",
  "abi": [
    {
      "inputs": [
        {
          "internalType": "string",
          "name": "_votingQuestion",
          "type": "string"
        },
        {
          "internalType": "string[]",
          "name": "proposalDescriptions",
          "type": "string[]"
        },
        {
          "internalType": "address",
          "name": "_verifierAddr",
          "type": "address"
        }
      ],
      "stateMutability": "nonpayable",
      "type": "constructor"
    },
    {
      "anonymous": false,
      "inputs": [
        {
          "indexed": true,
          "internalType": "address",
          "name": "_from",
          "type": "address"
        },
        {
          "indexed": true,
          "internalType": "uint256",
          "name": "_propositionIndex",
          "type": "uint256"
        }
      ],
      "name": "Voted",
      "type": "event"
    },
    {
      "inputs": [],
      "name": "anonAadhaarVerifierAddr",
      "outputs": [
        {
          "internalType": "address",
          "name": "",
          "type": "address"
        }
      ],
      "stateMutability": "view",
      "type": "function"
    },
    {
      "inputs": [
        {
          "internalType": "uint256",
          "name": "_nullifier",
          "type": "uint256"
        }
      ],
      "name": "checkVoted",
      "outputs": [
        {
          "internalType": "bool",
          "name": "",
          "type": "bool"
        }
      ],
      "stateMutability": "view",
      "type": "function"
    },
    {
      "inputs": [
        {
          "internalType": "uint256",
          "name": "proposalIndex",
          "type": "uint256"
        }
      ],
      "name": "getProposal",
      "outputs": [
        {
          "internalType": "string",
          "name": "",
          "type": "string"
        },
        {
          "internalType": "uint256",
          "name": "",
          "type": "uint256"
        }
      ],
      "stateMutability": "view",
      "type": "function"
    },
    {
      "inputs": [],
      "name": "getProposalCount",
      "outputs": [
        {
          "internalType": "uint256",
          "name": "",
          "type": "uint256"
        }
      ],
      "stateMutability": "view",
      "type": "function"
    },
    {
      "inputs": [],
      "name": "getTotalVotes",
      "outputs": [
        {
          "internalType": "uint256",
          "name": "",
          "type": "uint256"
        }
      ],
      "stateMutability": "view",
      "type": "function"
    },
    {
      "inputs": [
        {
          "internalType": "uint256",
          "name": "",
          "type": "uint256"
        }
      ],
      "name": "hasVoted",
      "outputs": [
        {
          "internalType": "bool",
          "name": "",
          "type": "bool"
        }
      ],
      "stateMutability": "view",
      "type": "function"
    },
    {
      "inputs": [
        {
          "internalType": "uint256",
          "name": "timestamp",
          "type": "uint256"
        }
      ],
      "name": "isLessThan3HoursAgo",
      "outputs": [
        {
          "internalType": "bool",
          "name": "",
          "type": "bool"
        }
      ],
      "stateMutability": "view",
      "type": "function"
    },
    {
      "inputs": [
        {
          "internalType": "uint256",
          "name": "",
          "type": "uint256"
        }
      ],
      "name": "proposals",
      "outputs": [
        {
          "internalType": "string",
          "name": "description",
          "type": "string"
        },
        {
          "internalType": "uint256",
          "name": "voteCount",
          "type": "uint256"
        }
      ],
      "stateMutability": "view",
      "type": "function"
    },
    {
      "inputs": [
        {
          "internalType": "uint256",
          "name": "proposalIndex",
          "type": "uint256"
        },
        {
          "internalType": "uint256",
          "name": "identityNullifier",
          "type": "uint256"
        },
        {
          "internalType": "uint256",
          "name": "userNullifier",
          "type": "uint256"
        },
        {
          "internalType": "uint256",
          "name": "timestamp",
          "type": "uint256"
        },
        {
          "internalType": "uint256",
          "name": "signal",
          "type": "uint256"
        },
        {
          "internalType": "uint256[8]",
          "name": "groth16Proof",
          "type": "uint256[8]"
        }
      ],
      "name": "voteForProposal",
      "outputs": [],
      "stateMutability": "nonpayable",
      "type": "function"
    },
    {
      "inputs": [],
      "name": "votingQuestion",
      "outputs": [
        {
          "internalType": "string",
          "name": "",
          "type": "string"
        }
      ],
      "stateMutability": "view",
      "type": "function"
    }
  ],
  "bytecode": "0x60806040523480156200001157600080fd5b5060405162001b1c38038062001b1c83398181016040528101906200003791906200042d565b80600160006101000a81548173ffffffffffffffffffffffffffffffffffffffff021916908373ffffffffffffffffffffffffffffffffffffffff160217905550826000908162000089919062000712565b5060005b82518110156200012f5760026040518060400160405280858481518110620000ba57620000b9620007f9565b5b602002602001015181526020016000815250908060018154018082558091505060019003906000526020600020906002020160009091909190915060008201518160000190816200010c919062000712565b506020820151816001015550508080620001269062000857565b9150506200008d565b50505050620008a4565b6000604051905090565b600080fd5b600080fd5b600080fd5b600080fd5b6000601f19601f8301169050919050565b7f4e487b7100000000000000000000000000000000000000000000000000000000600052604160045260246000fd5b620001a28262000157565b810181811067ffffffffffffffff82111715620001c457620001c362000168565b5b80604052505050565b6000620001d962000139565b9050620001e7828262000197565b919050565b600067ffffffffffffffff8211156200020a576200020962000168565b5b620002158262000157565b9050602081019050919050565b60005b838110156200024257808201518184015260208101905062000225565b60008484015250505050565b6000620002656200025f84620001ec565b620001cd565b90508281526020810184848401111562000284576200028362000152565b5b6200029184828562000222565b509392505050565b600082601f830112620002b157620002b06200014d565b5b8151620002c38482602086016200024e565b91505092915050565b600067ffffffffffffffff821115620002ea57620002e962000168565b5b602082029050602081019050919050565b600080fd5b6000620003176200031184620002cc565b620001cd565b905080838252602082019050602084028301858111156200033d576200033c620002fb565b5b835b818110156200038b57805167ffffffffffffffff8111156200036657620003656200014d565b5b80860162000375898262000299565b855260208501945050506020810190506200033f565b5050509392505050565b600082601f830112620003ad57620003ac6200014d565b5b8151620003bf84826020860162000300565b91505092915050565b600073ffffffffffffffffffffffffffffffffffffffff82169050919050565b6000620003f582620003c8565b9050919050565b6200040781620003e8565b81146200041357600080fd5b50565b6000815190506200042781620003fc565b92915050565b60008060006060848603121562000449576200044862000143565b5b600084015167ffffffffffffffff8111156200046a576200046962000148565b5b620004788682870162000299565b935050602084015167ffffffffffffffff8111156200049c576200049b62000148565b5b620004aa8682870162000395565b9250506040620004bd8682870162000416565b9150509250925092565b600081519050919050565b7f4e487b7100000000000000000000000000000000000000000000000000000000600052602260045260246000fd5b600060028204905060018216806200051a57607f821691505b60208210810362000530576200052f620004d2565b5b50919050565b60008190508160005260206000209050919050565b60006020601f8301049050919050565b600082821b905092915050565b6000600883026200059a7fffffffffffffffffffffffffffffffffffffffffffffffffffffffffffffffff826200055b565b620005a686836200055b565b95508019841693508086168417925050509392505050565b6000819050919050565b6000819050919050565b6000620005f3620005ed620005e784620005be565b620005c8565b620005be565b9050919050565b6000819050919050565b6200060f83620005d2565b620006276200061e82620005fa565b84845462000568565b825550505050565b600090565b6200063e6200062f565b6200064b81848462000604565b505050565b5b8181101562000673576200066760008262000634565b60018101905062000651565b5050565b601f821115620006c2576200068c8162000536565b62000697846200054b565b81016020851015620006a7578190505b620006bf620006b6856200054b565b83018262000650565b50505b505050565b600082821c905092915050565b6000620006e760001984600802620006c7565b1980831691505092915050565b6000620007028383620006d4565b9150826002028217905092915050565b6200071d82620004c7565b67ffffffffffffffff81111562000739576200073862000168565b5b62000745825462000501565b6200075282828562000677565b600060209050601f8311600181146200078a576000841562000775578287015190505b620007818582620006f4565b865550620007f1565b601f1984166200079a8662000536565b60005b82811015620007c4578489015182556001820191506020850194506020810190506200079d565b86831015620007e45784890151620007e0601f891682620006d4565b8355505b6001600288020188555050505b505050505050565b7f4e487b7100000000000000000000000000000000000000000000000000000000600052603260045260246000fd5b7f4e487b7100000000000000000000000000000000000000000000000000000000600052601160045260246000fd5b60006200086482620005be565b91507fffffffffffffffffffffffffffffffffffffffffffffffffffffffffffffffff820362000899576200089862000828565b5b600182019050919050565b61126880620008b46000396000f3fe608060405234801561001057600080fd5b506004361061009e5760003560e01c80639a0e7d66116100665780639a0e7d6614610170578063c08cc02d1461018e578063c7f758a8146101ac578063d33a87c0146101dd578063ecca031f146101f95761009e565b8063013cf08b146100a35780630dbffbcd146100d45780631ec7ea8f146100f2578063470d8c2c146101225780637f7658ff14610152575b600080fd5b6100bd60048036038101906100b891906108dd565b610229565b6040516100cb9291906109a9565b60405180910390f35b6100dc6102e5565b6040516100e99190610a1a565b60405180910390f35b61010c600480360381019061010791906108dd565b61030b565b6040516101199190610a50565b60405180910390f35b61013c600480360381019061013791906108dd565b610324565b6040516101499190610a50565b60405180910390f35b61015a61034e565b6040516101679190610a6b565b60405180910390f35b6101786103dc565b6040516101859190610a8d565b60405180910390f35b610196610441565b6040516101a39190610a8d565b60405180910390f35b6101c660048036038101906101c191906108dd565b61044e565b6040516101d49291906109a9565b60405180910390f35b6101f760048036038101906101f29190610bde565b61057a565b005b610213600480360381019061020e91906108dd565b610858565b6040516102209190610a50565b60405180910390f35b6002818154811061023957600080fd5b906000526020600020906002020160009150905080600001805461025c90610c9b565b80601f016020809104026020016040519081016040528092919081815260200182805461028890610c9b565b80156102d55780601f106102aa576101008083540402835291602001916102d5565b820191906000526020600020905b8154815290600101906020018083116102b857829003601f168201915b5050505050908060010154905082565b600160009054906101000a900473ffffffffffffffffffffffffffffffffffffffff1681565b6000612a304261031b9190610cfb565b82119050919050565b60006003600083815260200190815260200160002060009054906101000a900460ff169050919050565b6000805461035b90610c9b565b80601f016020809104026020016040519081016040528092919081815260200182805461038790610c9b565b80156103d45780601f106103a9576101008083540402835291602001916103d4565b820191906000526020600020905b8154815290600101906020018083116103b757829003601f168201915b505050505081565b6000806000905060005b600280549050811015610439576002818154811061040757610406610d2f565b5b906000526020600020906002020160010154826104249190610d5e565b9150808061043190610d92565b9150506103e6565b508091505090565b6000600280549050905090565b606060006002805490508310610499576040517f08c379a000000000000000000000000000000000000000000000000000000000815260040161049090610e4c565b60405180910390fd5b6000600284815481106104af576104ae610d2f565b5b90600052602060002090600202016040518060400160405290816000820180546104d890610c9b565b80601f016020809104026020016040519081016040528092919081815260200182805461050490610c9b565b80156105515780601f1061052657610100808354040283529160200191610551565b820191906000526020600020905b81548152906001019060200180831161053457829003601f168201915b505050505081526020016001820154815250509050806000015181602001519250925050915091565b60028054905086106105c1576040517f08c379a00000000000000000000000000000000000000000000000000000000081526004016105b890610e4c565b60405180910390fd5b816105cb33610878565b1461060b576040517f08c379a000000000000000000000000000000000000000000000000000000000815260040161060290610ede565b60405180910390fd5b600115156106188461030b565b15151461065a576040517f08c379a000000000000000000000000000000000000000000000000000000000815260040161065190610f96565b60405180910390fd5b60011515600160009054906101000a900473ffffffffffffffffffffffffffffffffffffffff1673ffffffffffffffffffffffffffffffffffffffff1663d2955cd687878787876040518663ffffffff1660e01b81526004016106c1959493929190611061565b602060405180830381865afa1580156106de573d6000803e3d6000fd5b505050506040513d601f19601f8201168201806040525081019061070291906110e1565b151514610744576040517f08c379a000000000000000000000000000000000000000000000000000000000815260040161073b90611180565b60405180910390fd5b6003600085815260200190815260200160002060009054906101000a900460ff16156107a5576040517f08c379a000000000000000000000000000000000000000000000000000000000815260040161079c90611212565b60405180910390fd5b600286815481106107b9576107b8610d2f565b5b906000526020600020906002020160010160008154809291906107db90610d92565b919050555060016003600086815260200190815260200160002060006101000a81548160ff021916908315150217905550853373ffffffffffffffffffffffffffffffffffffffff167f4d99b957a2bc29a30ebd96a7be8e68fe50a3c701db28a91436490b7d53870ca460405160405180910390a3505050505050565b60036020528060005260406000206000915054906101000a900460ff1681565b60008173ffffffffffffffffffffffffffffffffffffffff169050919050565b6000604051905090565b600080fd5b6000819050919050565b6108ba816108a7565b81146108c557600080fd5b50565b6000813590506108d7816108b1565b92915050565b6000602082840312156108f3576108f26108a2565b5b6000610901848285016108c8565b91505092915050565b600081519050919050565b600082825260208201905092915050565b60005b83811015610944578082015181840152602081019050610929565b60008484015250505050565b6000601f19601f8301169050919050565b600061096c8261090a565b6109768185610915565b9350610986818560208601610926565b61098f81610950565b840191505092915050565b6109a3816108a7565b82525050565b600060408201905081810360008301526109c38185610961565b90506109d2602083018461099a565b9392505050565b600073ffffffffffffffffffffffffffffffffffffffff82169050919050565b6000610a04826109d9565b9050919050565b610a14816109f9565b82525050565b6000602082019050610a2f6000830184610a0b565b92915050565b60008115159050919050565b610a4a81610a35565b82525050565b6000602082019050610a656000830184610a41565b92915050565b60006020820190508181036000830152610a858184610961565b905092915050565b6000602082019050610aa2600083018461099a565b92915050565b600080fd5b7f4e487b7100000000000000000000000000000000000000000000000000000000600052604160045260246000fd5b610ae582610950565b810181811067ffffffffffffffff82111715610b0457610b03610aad565b5b80604052505050565b6000610b17610898565b9050610b238282610adc565b919050565b600067ffffffffffffffff821115610b4357610b42610aad565b5b602082029050919050565b600080fd5b6000610b66610b6184610b28565b610b0d565b90508060208402830185811115610b8057610b7f610b4e565b5b835b81811015610ba95780610b9588826108c8565b845260208401935050602081019050610b82565b5050509392505050565b600082601f830112610bc857610bc7610aa8565b5b6008610bd5848285610b53565b91505092915050565b6000806000806000806101a08789031215610bfc57610bfb6108a2565b5b6000610c0a89828a016108c8565b9650506020610c1b89828a016108c8565b9550506040610c2c89828a016108c8565b9450506060610c3d89828a016108c8565b9350506080610c4e89828a016108c8565b92505060a0610c5f89828a01610bb3565b9150509295509295509295565b7f4e487b7100000000000000000000000000000000000000000000000000000000600052602260045260246000fd5b60006002820490506001821680610cb357607f821691505b602082108103610cc657610cc5610c6c565b5b50919050565b7f4e487b7100000000000000000000000000000000000000000000000000000000600052601160045260246000fd5b6000610d06826108a7565b9150610d11836108a7565b9250828203905081811115610d2957610d28610ccc565b5b92915050565b7f4e487b7100000000000000000000000000000000000000000000000000000000600052603260045260246000fd5b6000610d69826108a7565b9150610d74836108a7565b9250828201905080821115610d8c57610d8b610ccc565b5b92915050565b6000610d9d826108a7565b91507fffffffffffffffffffffffffffffffffffffffffffffffffffffffffffffffff8203610dcf57610dce610ccc565b5b600182019050919050565b7f5b416e6f6e41616468616172566f74655d3a20496e76616c69642070726f706f60008201527f73616c20696e6465780000000000000000000000000000000000000000000000602082015250565b6000610e36602983610915565b9150610e4182610dda565b604082019050919050565b60006020820190508181036000830152610e6581610e29565b9050919050565b7f5b416e6f6e41616468616172566f74655d3a2077726f6e67207573657220736960008201527f676e616c2073656e742e00000000000000000000000000000000000000000000602082015250565b6000610ec8602a83610915565b9150610ed382610e6c565b604082019050919050565b60006020820190508181036000830152610ef781610ebb565b9050919050565b7f5b416e6f6e41616468616172566f74655d3a2050726f6f66206d75737420626560008201527f2067656e6572617465642077697468204161646861617220646174612067656e60208201527f657261746564206c657373207468616e203320686f7572732061676f2e000000604082015250565b6000610f80605d83610915565b9150610f8b82610efe565b606082019050919050565b60006020820190508181036000830152610faf81610f73565b9050919050565b600060089050919050565b600081905092915050565b6000819050919050565b610fdf816108a7565b82525050565b6000610ff18383610fd6565b60208301905092915050565b6000602082019050919050565b61101381610fb6565b61101d8184610fc1565b925061102882610fcc565b8060005b838110156110595781516110408782610fe5565b965061104b83610ffd565b92505060018101905061102c565b505050505050565b600061018082019050611077600083018861099a565b611084602083018761099a565b611091604083018661099a565b61109e606083018561099a565b6110ab608083018461100a565b9695505050505050565b6110be81610a35565b81146110c957600080fd5b50565b6000815190506110db816110b5565b92915050565b6000602082840312156110f7576110f66108a2565b5b6000611105848285016110cc565b91505092915050565b7f5b416e6f6e41616468616172566f74655d3a2070726f6f662073656e7420697360008201527f206e6f742076616c69642e000000000000000000000000000000000000000000602082015250565b600061116a602b83610915565b91506111758261110e565b604082019050919050565b600060208201905081810360008301526111998161115d565b9050919050565b7f5b416e6f6e41616468616172566f74655d3a20557365722068617320616c726560008201527f61647920766f7465640000000000000000000000000000000000000000000000602082015250565b60006111fc602983610915565b9150611207826111a0565b604082019050919050565b6000602082019050818103600083015261122b816111ef565b905091905056fea264697066735822122087fd711d633faeba879d3d46e172d34e5a5e9dcc4e97ced0e48a4d50e477d2dd64736f6c63430008130033",
  "linkReferences": {},
  "deployedLinkReferences": {}
}