{
  "_format": "hh-sol-artifact-1",
  "contractName": "Vote",
  "sourceName": "contracts/Vote.sol",
  "abi": [
    {
      "inputs": [
        {
          "internalType": "string",
          "name": "_votingQuestion",
          "type": "string"
        },
        {
          "internalType": "string[]",
          "name": "proposalDescriptions",
          "type": "string[]"
        },
        {
          "internalType": "address",
          "name": "_verifierAddr",
          "type": "address"
        }
      ],
      "stateMutability": "nonpayable",
      "type": "constructor"
    },
    {
      "anonymous": false,
      "inputs": [
        {
          "indexed": true,
          "internalType": "address",
          "name": "_from",
          "type": "address"
        },
        {
          "indexed": true,
          "internalType": "uint256",
          "name": "_propositionIndex",
          "type": "uint256"
        }
      ],
      "name": "Voted",
      "type": "event"
    },
    {
      "inputs": [
        {
          "internalType": "address",
          "name": "_addr",
          "type": "address"
        }
      ],
      "name": "checkVoted",
      "outputs": [
        {
          "internalType": "bool",
          "name": "",
          "type": "bool"
        }
      ],
      "stateMutability": "view",
      "type": "function"
    },
    {
      "inputs": [
        {
          "internalType": "uint256",
          "name": "proposalIndex",
          "type": "uint256"
        }
      ],
      "name": "getProposal",
      "outputs": [
        {
          "internalType": "string",
          "name": "",
          "type": "string"
        },
        {
          "internalType": "uint256",
          "name": "",
          "type": "uint256"
        }
      ],
      "stateMutability": "view",
      "type": "function"
    },
    {
      "inputs": [],
      "name": "getProposalCount",
      "outputs": [
        {
          "internalType": "uint256",
          "name": "",
          "type": "uint256"
        }
      ],
      "stateMutability": "view",
      "type": "function"
    },
    {
      "inputs": [],
      "name": "getTotalVotes",
      "outputs": [
        {
          "internalType": "uint256",
          "name": "",
          "type": "uint256"
        }
      ],
      "stateMutability": "view",
      "type": "function"
    },
    {
      "inputs": [
        {
          "internalType": "address",
          "name": "",
          "type": "address"
        }
      ],
      "name": "hasVoted",
      "outputs": [
        {
          "internalType": "bool",
          "name": "",
          "type": "bool"
        }
      ],
      "stateMutability": "view",
      "type": "function"
    },
    {
      "inputs": [
        {
          "internalType": "uint256",
          "name": "",
          "type": "uint256"
        }
      ],
      "name": "proposals",
      "outputs": [
        {
          "internalType": "string",
          "name": "description",
          "type": "string"
        },
        {
          "internalType": "uint256",
          "name": "voteCount",
          "type": "uint256"
        }
      ],
      "stateMutability": "view",
      "type": "function"
    },
    {
      "inputs": [],
      "name": "verifierAddr",
      "outputs": [
        {
          "internalType": "address",
          "name": "",
          "type": "address"
        }
      ],
      "stateMutability": "view",
      "type": "function"
    },
    {
      "inputs": [
        {
          "internalType": "uint256[2]",
          "name": "_pA",
          "type": "uint256[2]"
        },
        {
          "internalType": "uint256[2][2]",
          "name": "_pB",
          "type": "uint256[2][2]"
        },
        {
          "internalType": "uint256[2]",
          "name": "_pC",
          "type": "uint256[2]"
        },
        {
          "internalType": "uint256[32]",
          "name": "_pubSignals",
          "type": "uint256[32]"
        }
      ],
      "name": "verify",
      "outputs": [
        {
          "internalType": "bool",
          "name": "",
          "type": "bool"
        }
      ],
      "stateMutability": "view",
      "type": "function"
    },
    {
      "inputs": [
        {
          "internalType": "uint256",
          "name": "proposalIndex",
          "type": "uint256"
        },
        {
          "internalType": "uint256[2]",
          "name": "_pA",
          "type": "uint256[2]"
        },
        {
          "internalType": "uint256[2][2]",
          "name": "_pB",
          "type": "uint256[2][2]"
        },
        {
          "internalType": "uint256[2]",
          "name": "_pC",
          "type": "uint256[2]"
        },
        {
          "internalType": "uint256[32]",
          "name": "_pubSignals",
          "type": "uint256[32]"
        }
      ],
      "name": "voteForProposal",
      "outputs": [],
      "stateMutability": "nonpayable",
      "type": "function"
    },
    {
      "inputs": [],
      "name": "votingQuestion",
      "outputs": [
        {
          "internalType": "string",
          "name": "",
          "type": "string"
        }
      ],
      "stateMutability": "view",
      "type": "function"
    }
  ],
  "bytecode": "0x60806040523480156200001157600080fd5b50604051620018f8380380620018f883398181016040528101906200003791906200042d565b80600160006101000a81548173ffffffffffffffffffffffffffffffffffffffff021916908373ffffffffffffffffffffffffffffffffffffffff160217905550826000908162000089919062000712565b5060005b82518110156200012f5760026040518060400160405280858481518110620000ba57620000b9620007f9565b5b602002602001015181526020016000815250908060018154018082558091505060019003906000526020600020906002020160009091909190915060008201518160000190816200010c919062000712565b506020820151816001015550508080620001269062000857565b9150506200008d565b50505050620008a4565b6000604051905090565b600080fd5b600080fd5b600080fd5b600080fd5b6000601f19601f8301169050919050565b7f4e487b7100000000000000000000000000000000000000000000000000000000600052604160045260246000fd5b620001a28262000157565b810181811067ffffffffffffffff82111715620001c457620001c362000168565b5b80604052505050565b6000620001d962000139565b9050620001e7828262000197565b919050565b600067ffffffffffffffff8211156200020a576200020962000168565b5b620002158262000157565b9050602081019050919050565b60005b838110156200024257808201518184015260208101905062000225565b60008484015250505050565b6000620002656200025f84620001ec565b620001cd565b90508281526020810184848401111562000284576200028362000152565b5b6200029184828562000222565b509392505050565b600082601f830112620002b157620002b06200014d565b5b8151620002c38482602086016200024e565b91505092915050565b600067ffffffffffffffff821115620002ea57620002e962000168565b5b602082029050602081019050919050565b600080fd5b6000620003176200031184620002cc565b620001cd565b905080838252602082019050602084028301858111156200033d576200033c620002fb565b5b835b818110156200038b57805167ffffffffffffffff8111156200036657620003656200014d565b5b80860162000375898262000299565b855260208501945050506020810190506200033f565b5050509392505050565b600082601f830112620003ad57620003ac6200014d565b5b8151620003bf84826020860162000300565b91505092915050565b600073ffffffffffffffffffffffffffffffffffffffff82169050919050565b6000620003f582620003c8565b9050919050565b6200040781620003e8565b81146200041357600080fd5b50565b6000815190506200042781620003fc565b92915050565b60008060006060848603121562000449576200044862000143565b5b600084015167ffffffffffffffff8111156200046a576200046962000148565b5b620004788682870162000299565b935050602084015167ffffffffffffffff8111156200049c576200049b62000148565b5b620004aa8682870162000395565b9250506040620004bd8682870162000416565b9150509250925092565b600081519050919050565b7f4e487b7100000000000000000000000000000000000000000000000000000000600052602260045260246000fd5b600060028204905060018216806200051a57607f821691505b60208210810362000530576200052f620004d2565b5b50919050565b60008190508160005260206000209050919050565b60006020601f8301049050919050565b600082821b905092915050565b6000600883026200059a7fffffffffffffffffffffffffffffffffffffffffffffffffffffffffffffffff826200055b565b620005a686836200055b565b95508019841693508086168417925050509392505050565b6000819050919050565b6000819050919050565b6000620005f3620005ed620005e784620005be565b620005c8565b620005be565b9050919050565b6000819050919050565b6200060f83620005d2565b620006276200061e82620005fa565b84845462000568565b825550505050565b600090565b6200063e6200062f565b6200064b81848462000604565b505050565b5b8181101562000673576200066760008262000634565b60018101905062000651565b5050565b601f821115620006c2576200068c8162000536565b62000697846200054b565b81016020851015620006a7578190505b620006bf620006b6856200054b565b83018262000650565b50505b505050565b600082821c905092915050565b6000620006e760001984600802620006c7565b1980831691505092915050565b6000620007028383620006d4565b9150826002028217905092915050565b6200071d82620004c7565b67ffffffffffffffff81111562000739576200073862000168565b5b62000745825462000501565b6200075282828562000677565b600060209050601f8311600181146200078a576000841562000775578287015190505b620007818582620006f4565b865550620007f1565b601f1984166200079a8662000536565b60005b82811015620007c4578489015182556001820191506020850194506020810190506200079d565b86831015620007e45784890151620007e0601f891682620006d4565b8355505b6001600288020188555050505b505050505050565b7f4e487b7100000000000000000000000000000000000000000000000000000000600052603260045260246000fd5b7f4e487b7100000000000000000000000000000000000000000000000000000000600052601160045260246000fd5b60006200086482620005be565b91507fffffffffffffffffffffffffffffffffffffffffffffffffffffffffffffffff820362000899576200089862000828565b5b600182019050919050565b61104480620008b46000396000f3fe608060405234801561001057600080fd5b506004361061009e5760003560e01c8063818ff6f411610066578063818ff6f414610170578063932e0d1f1461018c5780639a0e7d66146101bc578063c08cc02d146101da578063c7f758a8146101f85761009e565b8063013cf08b146100a357806309eef43e146100d457806328b4447114610104578063663ea2e2146101345780637f7658ff14610152575b600080fd5b6100bd60048036038101906100b89190610893565b610229565b6040516100cb92919061095f565b60405180910390f35b6100ee60048036038101906100e991906109ed565b6102e5565b6040516100fb9190610a35565b60405180910390f35b61011e600480360381019061011991906109ed565b610305565b60405161012b9190610a35565b60405180910390f35b61013c61035b565b6040516101499190610a5f565b60405180910390f35b61015a610381565b6040516101679190610a7a565b60405180910390f35b61018a60048036038101906101859190610b06565b61040f565b005b6101a660048036038101906101a19190610b83565b61060c565b6040516101b39190610a35565b60405180910390f35b6101c46106ba565b6040516101d19190610bec565b60405180910390f35b6101e261071f565b6040516101ef9190610bec565b60405180910390f35b610212600480360381019061020d9190610893565b61072c565b60405161022092919061095f565b60405180910390f35b6002818154811061023957600080fd5b906000526020600020906002020160009150905080600001805461025c90610c36565b80601f016020809104026020016040519081016040528092919081815260200182805461028890610c36565b80156102d55780601f106102aa576101008083540402835291602001916102d5565b820191906000526020600020905b8154815290600101906020018083116102b857829003601f168201915b5050505050908060010154905082565b60036020528060005260406000206000915054906101000a900460ff1681565b6000600360008373ffffffffffffffffffffffffffffffffffffffff1673ffffffffffffffffffffffffffffffffffffffff16815260200190815260200160002060009054906101000a900460ff169050919050565b600160009054906101000a900473ffffffffffffffffffffffffffffffffffffffff1681565b6000805461038e90610c36565b80601f01602080910402602001604051908101604052809291908181526020018280546103ba90610c36565b80156104075780601f106103dc57610100808354040283529160200191610407565b820191906000526020600020905b8154815290600101906020018083116103ea57829003601f168201915b505050505081565b6002805490508510610456576040517f08c379a000000000000000000000000000000000000000000000000000000000815260040161044d90610cb3565b60405180910390fd5b600360003373ffffffffffffffffffffffffffffffffffffffff1673ffffffffffffffffffffffffffffffffffffffff16815260200190815260200160002060009054906101000a900460ff16156104e3576040517f08c379a00000000000000000000000000000000000000000000000000000000081526004016104da90610d1f565b60405180910390fd5b6104ef8484848461060c565b61052e576040517f08c379a000000000000000000000000000000000000000000000000000000000815260040161052590610d8b565b60405180910390fd5b6002858154811061054257610541610dab565b5b9060005260206000209060020201600101600081548092919061056490610e09565b91905055506001600360003373ffffffffffffffffffffffffffffffffffffffff1673ffffffffffffffffffffffffffffffffffffffff16815260200190815260200160002060006101000a81548160ff021916908315150217905550843373ffffffffffffffffffffffffffffffffffffffff167f4d99b957a2bc29a30ebd96a7be8e68fe50a3c701db28a91436490b7d53870ca460405160405180910390a35050505050565b6000600160009054906101000a900473ffffffffffffffffffffffffffffffffffffffff1673ffffffffffffffffffffffffffffffffffffffff16633cc08b24868686866040518563ffffffff1660e01b815260040161066f9493929190610f3a565b602060405180830381865afa15801561068c573d6000803e3d6000fd5b505050506040513d601f19601f820116820180604052508101906106b09190610fad565b9050949350505050565b6000806000905060005b60028054905081101561071757600281815481106106e5576106e4610dab565b5b906000526020600020906002020160010154826107029190610fda565b9150808061070f90610e09565b9150506106c4565b508091505090565b6000600280549050905090565b606060006002805490508310610777576040517f08c379a000000000000000000000000000000000000000000000000000000000815260040161076e90610cb3565b60405180910390fd5b60006002848154811061078d5761078c610dab565b5b90600052602060002090600202016040518060400160405290816000820180546107b690610c36565b80601f01602080910402602001604051908101604052809291908181526020018280546107e290610c36565b801561082f5780601f106108045761010080835404028352916020019161082f565b820191906000526020600020905b81548152906001019060200180831161081257829003601f168201915b505050505081526020016001820154815250509050806000015181602001519250925050915091565b600080fd5b6000819050919050565b6108708161085d565b811461087b57600080fd5b50565b60008135905061088d81610867565b92915050565b6000602082840312156108a9576108a8610858565b5b60006108b78482850161087e565b91505092915050565b600081519050919050565b600082825260208201905092915050565b60005b838110156108fa5780820151818401526020810190506108df565b60008484015250505050565b6000601f19601f8301169050919050565b6000610922826108c0565b61092c81856108cb565b935061093c8185602086016108dc565b61094581610906565b840191505092915050565b6109598161085d565b82525050565b600060408201905081810360008301526109798185610917565b90506109886020830184610950565b9392505050565b600073ffffffffffffffffffffffffffffffffffffffff82169050919050565b60006109ba8261098f565b9050919050565b6109ca816109af565b81146109d557600080fd5b50565b6000813590506109e7816109c1565b92915050565b600060208284031215610a0357610a02610858565b5b6000610a11848285016109d8565b91505092915050565b60008115159050919050565b610a2f81610a1a565b82525050565b6000602082019050610a4a6000830184610a26565b92915050565b610a59816109af565b82525050565b6000602082019050610a746000830184610a50565b92915050565b60006020820190508181036000830152610a948184610917565b905092915050565b600080fd5b600081905082602060020282011115610abd57610abc610a9c565b5b92915050565b600081905082604060020282011115610adf57610ade610a9c565b5b92915050565b6000819050826020800282011115610b0057610aff610a9c565b5b92915050565b60008060008060006105208688031215610b2357610b22610858565b5b6000610b318882890161087e565b9550506020610b4288828901610aa1565b9450506060610b5388828901610ac3565b93505060e0610b6488828901610aa1565b925050610120610b7688828901610ae5565b9150509295509295909350565b6000806000806105008587031215610b9e57610b9d610858565b5b6000610bac87828801610aa1565b9450506040610bbd87828801610ac3565b93505060c0610bce87828801610aa1565b925050610100610be087828801610ae5565b91505092959194509250565b6000602082019050610c016000830184610950565b92915050565b7f4e487b7100000000000000000000000000000000000000000000000000000000600052602260045260246000fd5b60006002820490506001821680610c4e57607f821691505b602082108103610c6157610c60610c07565b5b50919050565b7f496e76616c69642070726f706f73616c20696e64657800000000000000000000600082015250565b6000610c9d6016836108cb565b9150610ca882610c67565b602082019050919050565b60006020820190508181036000830152610ccc81610c90565b9050919050565b7f596f75206861766520616c726561647920766f74656400000000000000000000600082015250565b6000610d096016836108cb565b9150610d1482610cd3565b602082019050919050565b60006020820190508181036000830152610d3881610cfc565b9050919050565b7f596f7572206964656e646974792070726f6f66206973206e6f742076616c6964600082015250565b6000610d756020836108cb565b9150610d8082610d3f565b602082019050919050565b60006020820190508181036000830152610da481610d68565b9050919050565b7f4e487b7100000000000000000000000000000000000000000000000000000000600052603260045260246000fd5b7f4e487b7100000000000000000000000000000000000000000000000000000000600052601160045260246000fd5b6000610e148261085d565b91507fffffffffffffffffffffffffffffffffffffffffffffffffffffffffffffffff8203610e4657610e45610dda565b5b600182019050919050565b82818337505050565b610e6660408383610e51565b5050565b600060029050919050565b600081905092915050565b6000819050919050565b610e9660408383610e51565b5050565b6000610ea68383610e8a565b60408301905092915050565b600082905092915050565b6000604082019050919050565b610ed381610e6a565b610edd8184610e75565b9250610ee882610e80565b8060005b83811015610f2157610efe8284610eb2565b610f088782610e9a565b9650610f1383610ebd565b925050600181019050610eec565b505050505050565b610f366104008383610e51565b5050565b600061050082019050610f506000830187610e5a565b610f5d6040830186610eca565b610f6a60c0830185610e5a565b610f78610100830184610f29565b95945050505050565b610f8a81610a1a565b8114610f9557600080fd5b50565b600081519050610fa781610f81565b92915050565b600060208284031215610fc357610fc2610858565b5b6000610fd184828501610f98565b91505092915050565b6000610fe58261085d565b9150610ff08361085d565b925082820190508082111561100857611007610dda565b5b9291505056fea2646970667358221220bcf2e75fa758925711a4ce4b58457724ef04927e035dce2c5d1cef3ed2da186f64736f6c63430008130033",
  "linkReferences": {},
  "deployedLinkReferences": {}
}