{
  "_format": "hh-sol-artifact-1",
  "contractName": "Vote",
  "sourceName": "contracts/Vote.sol",
  "abi": [
    {
      "inputs": [
        {
          "internalType": "string",
          "name": "_votingQuestion",
          "type": "string"
        },
        {
          "internalType": "string[]",
          "name": "proposalDescriptions",
          "type": "string[]"
        },
        {
          "internalType": "address",
          "name": "_verifierAddr",
          "type": "address"
        }
      ],
      "stateMutability": "nonpayable",
      "type": "constructor"
    },
    {
      "anonymous": false,
      "inputs": [
        {
          "indexed": true,
          "internalType": "address",
          "name": "_from",
          "type": "address"
        },
        {
          "indexed": true,
          "internalType": "uint256",
          "name": "_propositionIndex",
          "type": "uint256"
        }
      ],
      "name": "Voted",
      "type": "event"
    },
    {
      "inputs": [
        {
          "internalType": "uint256",
          "name": "proposalIndex",
          "type": "uint256"
        }
      ],
      "name": "getProposal",
      "outputs": [
        {
          "internalType": "string",
          "name": "",
          "type": "string"
        },
        {
          "internalType": "uint256",
          "name": "",
          "type": "uint256"
        }
      ],
      "stateMutability": "view",
      "type": "function"
    },
    {
      "inputs": [],
      "name": "getProposalCount",
      "outputs": [
        {
          "internalType": "uint256",
          "name": "",
          "type": "uint256"
        }
      ],
      "stateMutability": "view",
      "type": "function"
    },
    {
      "inputs": [
        {
          "internalType": "address",
          "name": "",
          "type": "address"
        }
      ],
      "name": "hasVoted",
      "outputs": [
        {
          "internalType": "bool",
          "name": "",
          "type": "bool"
        }
      ],
      "stateMutability": "view",
      "type": "function"
    },
    {
      "inputs": [
        {
          "internalType": "uint256",
          "name": "",
          "type": "uint256"
        }
      ],
      "name": "proposals",
      "outputs": [
        {
          "internalType": "string",
          "name": "description",
          "type": "string"
        },
        {
          "internalType": "uint256",
          "name": "voteCount",
          "type": "uint256"
        }
      ],
      "stateMutability": "view",
      "type": "function"
    },
    {
      "inputs": [],
      "name": "verifierAddr",
      "outputs": [
        {
          "internalType": "address",
          "name": "",
          "type": "address"
        }
      ],
      "stateMutability": "view",
      "type": "function"
    },
    {
      "inputs": [
        {
          "internalType": "uint256[2]",
          "name": "_pA",
          "type": "uint256[2]"
        },
        {
          "internalType": "uint256[2][2]",
          "name": "_pB",
          "type": "uint256[2][2]"
        },
        {
          "internalType": "uint256[2]",
          "name": "_pC",
          "type": "uint256[2]"
        },
        {
          "internalType": "uint256[32]",
          "name": "_pubSignals",
          "type": "uint256[32]"
        }
      ],
      "name": "verify",
      "outputs": [
        {
          "internalType": "bool",
          "name": "",
          "type": "bool"
        }
      ],
      "stateMutability": "view",
      "type": "function"
    },
    {
      "inputs": [
        {
          "internalType": "uint256",
          "name": "proposalIndex",
          "type": "uint256"
        },
        {
          "internalType": "uint256[2]",
          "name": "_pA",
          "type": "uint256[2]"
        },
        {
          "internalType": "uint256[2][2]",
          "name": "_pB",
          "type": "uint256[2][2]"
        },
        {
          "internalType": "uint256[2]",
          "name": "_pC",
          "type": "uint256[2]"
        },
        {
          "internalType": "uint256[32]",
          "name": "_pubSignals",
          "type": "uint256[32]"
        }
      ],
      "name": "voteForProposal",
      "outputs": [],
      "stateMutability": "nonpayable",
      "type": "function"
    },
    {
      "inputs": [],
      "name": "votingQuestion",
      "outputs": [
        {
          "internalType": "string",
          "name": "",
          "type": "string"
        }
      ],
      "stateMutability": "view",
      "type": "function"
    }
  ],
  "bytecode": "0x60806040523480156200001157600080fd5b50604051620017a5380380620017a583398181016040528101906200003791906200042d565b80600160006101000a81548173ffffffffffffffffffffffffffffffffffffffff021916908373ffffffffffffffffffffffffffffffffffffffff160217905550826000908162000089919062000712565b5060005b82518110156200012f5760026040518060400160405280858481518110620000ba57620000b9620007f9565b5b602002602001015181526020016000815250908060018154018082558091505060019003906000526020600020906002020160009091909190915060008201518160000190816200010c919062000712565b506020820151816001015550508080620001269062000857565b9150506200008d565b50505050620008a4565b6000604051905090565b600080fd5b600080fd5b600080fd5b600080fd5b6000601f19601f8301169050919050565b7f4e487b7100000000000000000000000000000000000000000000000000000000600052604160045260246000fd5b620001a28262000157565b810181811067ffffffffffffffff82111715620001c457620001c362000168565b5b80604052505050565b6000620001d962000139565b9050620001e7828262000197565b919050565b600067ffffffffffffffff8211156200020a576200020962000168565b5b620002158262000157565b9050602081019050919050565b60005b838110156200024257808201518184015260208101905062000225565b60008484015250505050565b6000620002656200025f84620001ec565b620001cd565b90508281526020810184848401111562000284576200028362000152565b5b6200029184828562000222565b509392505050565b600082601f830112620002b157620002b06200014d565b5b8151620002c38482602086016200024e565b91505092915050565b600067ffffffffffffffff821115620002ea57620002e962000168565b5b602082029050602081019050919050565b600080fd5b6000620003176200031184620002cc565b620001cd565b905080838252602082019050602084028301858111156200033d576200033c620002fb565b5b835b818110156200038b57805167ffffffffffffffff8111156200036657620003656200014d565b5b80860162000375898262000299565b855260208501945050506020810190506200033f565b5050509392505050565b600082601f830112620003ad57620003ac6200014d565b5b8151620003bf84826020860162000300565b91505092915050565b600073ffffffffffffffffffffffffffffffffffffffff82169050919050565b6000620003f582620003c8565b9050919050565b6200040781620003e8565b81146200041357600080fd5b50565b6000815190506200042781620003fc565b92915050565b60008060006060848603121562000449576200044862000143565b5b600084015167ffffffffffffffff8111156200046a576200046962000148565b5b620004788682870162000299565b935050602084015167ffffffffffffffff8111156200049c576200049b62000148565b5b620004aa8682870162000395565b9250506040620004bd8682870162000416565b9150509250925092565b600081519050919050565b7f4e487b7100000000000000000000000000000000000000000000000000000000600052602260045260246000fd5b600060028204905060018216806200051a57607f821691505b60208210810362000530576200052f620004d2565b5b50919050565b60008190508160005260206000209050919050565b60006020601f8301049050919050565b600082821b905092915050565b6000600883026200059a7fffffffffffffffffffffffffffffffffffffffffffffffffffffffffffffffff826200055b565b620005a686836200055b565b95508019841693508086168417925050509392505050565b6000819050919050565b6000819050919050565b6000620005f3620005ed620005e784620005be565b620005c8565b620005be565b9050919050565b6000819050919050565b6200060f83620005d2565b620006276200061e82620005fa565b84845462000568565b825550505050565b600090565b6200063e6200062f565b6200064b81848462000604565b505050565b5b8181101562000673576200066760008262000634565b60018101905062000651565b5050565b601f821115620006c2576200068c8162000536565b62000697846200054b565b81016020851015620006a7578190505b620006bf620006b6856200054b565b83018262000650565b50505b505050565b600082821c905092915050565b6000620006e760001984600802620006c7565b1980831691505092915050565b6000620007028383620006d4565b9150826002028217905092915050565b6200071d82620004c7565b67ffffffffffffffff81111562000739576200073862000168565b5b62000745825462000501565b6200075282828562000677565b600060209050601f8311600181146200078a576000841562000775578287015190505b620007818582620006f4565b865550620007f1565b601f1984166200079a8662000536565b60005b82811015620007c4578489015182556001820191506020850194506020810190506200079d565b86831015620007e45784890151620007e0601f891682620006d4565b8355505b6001600288020188555050505b505050505050565b7f4e487b7100000000000000000000000000000000000000000000000000000000600052603260045260246000fd5b7f4e487b7100000000000000000000000000000000000000000000000000000000600052601160045260246000fd5b60006200086482620005be565b91507fffffffffffffffffffffffffffffffffffffffffffffffffffffffffffffffff820362000899576200089862000828565b5b600182019050919050565b610ef180620008b46000396000f3fe608060405234801561001057600080fd5b50600436106100885760003560e01c8063818ff6f41161005b578063818ff6f41461012a578063932e0d1f14610146578063c08cc02d14610176578063c7f758a81461019457610088565b8063013cf08b1461008d57806309eef43e146100be578063663ea2e2146100ee5780637f7658ff1461010c575b600080fd5b6100a760048036038101906100a29190610774565b6101c5565b6040516100b5929190610840565b60405180910390f35b6100d860048036038101906100d391906108ce565b610281565b6040516100e59190610916565b60405180910390f35b6100f66102a1565b6040516101039190610940565b60405180910390f35b6101146102c7565b604051610121919061095b565b60405180910390f35b610144600480360381019061013f91906109e7565b610355565b005b610160600480360381019061015b9190610a64565b610552565b60405161016d9190610916565b60405180910390f35b61017e610600565b60405161018b9190610acd565b60405180910390f35b6101ae60048036038101906101a99190610774565b61060d565b6040516101bc929190610840565b60405180910390f35b600281815481106101d557600080fd5b90600052602060002090600202016000915090508060000180546101f890610b17565b80601f016020809104026020016040519081016040528092919081815260200182805461022490610b17565b80156102715780601f1061024657610100808354040283529160200191610271565b820191906000526020600020905b81548152906001019060200180831161025457829003601f168201915b5050505050908060010154905082565b60036020528060005260406000206000915054906101000a900460ff1681565b600160009054906101000a900473ffffffffffffffffffffffffffffffffffffffff1681565b600080546102d490610b17565b80601f016020809104026020016040519081016040528092919081815260200182805461030090610b17565b801561034d5780601f106103225761010080835404028352916020019161034d565b820191906000526020600020905b81548152906001019060200180831161033057829003601f168201915b505050505081565b600280549050851061039c576040517f08c379a000000000000000000000000000000000000000000000000000000000815260040161039390610b94565b60405180910390fd5b600360003373ffffffffffffffffffffffffffffffffffffffff1673ffffffffffffffffffffffffffffffffffffffff16815260200190815260200160002060009054906101000a900460ff1615610429576040517f08c379a000000000000000000000000000000000000000000000000000000000815260040161042090610c00565b60405180910390fd5b61043584848484610552565b610474576040517f08c379a000000000000000000000000000000000000000000000000000000000815260040161046b90610c6c565b60405180910390fd5b6002858154811061048857610487610c8c565b5b906000526020600020906002020160010160008154809291906104aa90610cea565b91905055506001600360003373ffffffffffffffffffffffffffffffffffffffff1673ffffffffffffffffffffffffffffffffffffffff16815260200190815260200160002060006101000a81548160ff021916908315150217905550843373ffffffffffffffffffffffffffffffffffffffff167f4d99b957a2bc29a30ebd96a7be8e68fe50a3c701db28a91436490b7d53870ca460405160405180910390a35050505050565b6000600160009054906101000a900473ffffffffffffffffffffffffffffffffffffffff1673ffffffffffffffffffffffffffffffffffffffff16633cc08b24868686866040518563ffffffff1660e01b81526004016105b59493929190610e1b565b602060405180830381865afa1580156105d2573d6000803e3d6000fd5b505050506040513d601f19601f820116820180604052508101906105f69190610e8e565b9050949350505050565b6000600280549050905090565b606060006002805490508310610658576040517f08c379a000000000000000000000000000000000000000000000000000000000815260040161064f90610b94565b60405180910390fd5b60006002848154811061066e5761066d610c8c565b5b906000526020600020906002020160405180604001604052908160008201805461069790610b17565b80601f01602080910402602001604051908101604052809291908181526020018280546106c390610b17565b80156107105780601f106106e557610100808354040283529160200191610710565b820191906000526020600020905b8154815290600101906020018083116106f357829003601f168201915b505050505081526020016001820154815250509050806000015181602001519250925050915091565b600080fd5b6000819050919050565b6107518161073e565b811461075c57600080fd5b50565b60008135905061076e81610748565b92915050565b60006020828403121561078a57610789610739565b5b60006107988482850161075f565b91505092915050565b600081519050919050565b600082825260208201905092915050565b60005b838110156107db5780820151818401526020810190506107c0565b60008484015250505050565b6000601f19601f8301169050919050565b6000610803826107a1565b61080d81856107ac565b935061081d8185602086016107bd565b610826816107e7565b840191505092915050565b61083a8161073e565b82525050565b6000604082019050818103600083015261085a81856107f8565b90506108696020830184610831565b9392505050565b600073ffffffffffffffffffffffffffffffffffffffff82169050919050565b600061089b82610870565b9050919050565b6108ab81610890565b81146108b657600080fd5b50565b6000813590506108c8816108a2565b92915050565b6000602082840312156108e4576108e3610739565b5b60006108f2848285016108b9565b91505092915050565b60008115159050919050565b610910816108fb565b82525050565b600060208201905061092b6000830184610907565b92915050565b61093a81610890565b82525050565b60006020820190506109556000830184610931565b92915050565b6000602082019050818103600083015261097581846107f8565b905092915050565b600080fd5b60008190508260206002028201111561099e5761099d61097d565b5b92915050565b6000819050826040600202820111156109c0576109bf61097d565b5b92915050565b60008190508260208002820111156109e1576109e061097d565b5b92915050565b60008060008060006105208688031215610a0457610a03610739565b5b6000610a128882890161075f565b9550506020610a2388828901610982565b9450506060610a34888289016109a4565b93505060e0610a4588828901610982565b925050610120610a57888289016109c6565b9150509295509295909350565b6000806000806105008587031215610a7f57610a7e610739565b5b6000610a8d87828801610982565b9450506040610a9e878288016109a4565b93505060c0610aaf87828801610982565b925050610100610ac1878288016109c6565b91505092959194509250565b6000602082019050610ae26000830184610831565b92915050565b7f4e487b7100000000000000000000000000000000000000000000000000000000600052602260045260246000fd5b60006002820490506001821680610b2f57607f821691505b602082108103610b4257610b41610ae8565b5b50919050565b7f496e76616c69642070726f706f73616c20696e64657800000000000000000000600082015250565b6000610b7e6016836107ac565b9150610b8982610b48565b602082019050919050565b60006020820190508181036000830152610bad81610b71565b9050919050565b7f596f75206861766520616c726561647920766f74656400000000000000000000600082015250565b6000610bea6016836107ac565b9150610bf582610bb4565b602082019050919050565b60006020820190508181036000830152610c1981610bdd565b9050919050565b7f596f7572206964656e646974792070726f6f66206973206e6f742076616c6964600082015250565b6000610c566020836107ac565b9150610c6182610c20565b602082019050919050565b60006020820190508181036000830152610c8581610c49565b9050919050565b7f4e487b7100000000000000000000000000000000000000000000000000000000600052603260045260246000fd5b7f4e487b7100000000000000000000000000000000000000000000000000000000600052601160045260246000fd5b6000610cf58261073e565b91507fffffffffffffffffffffffffffffffffffffffffffffffffffffffffffffffff8203610d2757610d26610cbb565b5b600182019050919050565b82818337505050565b610d4760408383610d32565b5050565b600060029050919050565b600081905092915050565b6000819050919050565b610d7760408383610d32565b5050565b6000610d878383610d6b565b60408301905092915050565b600082905092915050565b6000604082019050919050565b610db481610d4b565b610dbe8184610d56565b9250610dc982610d61565b8060005b83811015610e0257610ddf8284610d93565b610de98782610d7b565b9650610df483610d9e565b925050600181019050610dcd565b505050505050565b610e176104008383610d32565b5050565b600061050082019050610e316000830187610d3b565b610e3e6040830186610dab565b610e4b60c0830185610d3b565b610e59610100830184610e0a565b95945050505050565b610e6b816108fb565b8114610e7657600080fd5b50565b600081519050610e8881610e62565b92915050565b600060208284031215610ea457610ea3610739565b5b6000610eb284828501610e79565b9150509291505056fea26469706673582212200fd28da2fea631b2241e8e002e3a320ae332923c9f9e4193cf12c029c08d589664736f6c63430008130033",
  "linkReferences": {},
  "deployedLinkReferences": {}
}